{
  "_format": "hh-sol-artifact-1",
  "contractName": "JIRA",
  "sourceName": "contracts/JIRA.sol",
  "abi": [
    {
      "inputs": [
        {
          "internalType": "string",
          "name": "tokenURIData",
          "type": "string"
        }
      ],
      "name": "addData",
      "outputs": [
        {
          "internalType": "uint256",
          "name": "",
          "type": "uint256"
        }
      ],
      "stateMutability": "nonpayable",
      "type": "function"
    },
    {
      "inputs": [
        {
          "internalType": "uint256",
          "name": "",
          "type": "uint256"
        }
      ],
      "name": "data",
      "outputs": [
        {
          "internalType": "string",
          "name": "value",
          "type": "string"
        }
      ],
      "stateMutability": "view",
      "type": "function"
    },
    {
      "inputs": [],
      "name": "getToken",
      "outputs": [
        {
          "internalType": "uint256[]",
          "name": "",
          "type": "uint256[]"
        }
      ],
      "stateMutability": "view",
      "type": "function"
    },
    {
      "inputs": [],
      "name": "initialize",
      "outputs": [],
      "stateMutability": "nonpayable",
      "type": "function"
    },
    {
      "inputs": [],
      "name": "manager",
      "outputs": [
        {
          "internalType": "address",
          "name": "",
          "type": "address"
        }
      ],
      "stateMutability": "view",
      "type": "function"
    },
    {
      "inputs": [
        {
          "internalType": "uint256",
          "name": "",
          "type": "uint256"
        }
      ],
      "name": "nftTokenList",
      "outputs": [
        {
          "internalType": "uint256",
          "name": "",
          "type": "uint256"
        }
      ],
      "stateMutability": "view",
      "type": "function"
    },
    {
      "inputs": [],
      "name": "project",
      "outputs": [
        {
          "internalType": "string",
          "name": "",
          "type": "string"
        }
      ],
      "stateMutability": "view",
      "type": "function"
    },
    {
      "inputs": [
        {
          "internalType": "uint256",
          "name": "id",
          "type": "uint256"
        }
      ],
      "name": "tokenURI",
      "outputs": [
        {
          "components": [
            {
              "internalType": "string",
              "name": "value",
              "type": "string"
            }
          ],
          "internalType": "struct JIRA.Data",
          "name": "",
          "type": "tuple"
        }
      ],
      "stateMutability": "view",
      "type": "function"
    },
    {
      "inputs": [
        {
          "internalType": "uint256",
          "name": "itemId",
          "type": "uint256"
        },
        {
          "internalType": "string",
          "name": "tokenURIData",
          "type": "string"
        }
      ],
      "name": "updateData",
      "outputs": [
        {
          "components": [
            {
              "internalType": "string",
              "name": "value",
              "type": "string"
            }
          ],
          "internalType": "struct JIRA.Data",
          "name": "",
          "type": "tuple"
        }
      ],
      "stateMutability": "nonpayable",
      "type": "function"
    }
  ],
  "bytecode": "0x608060405234801561001057600080fd5b50610d02806100206000396000f3fe608060405234801561001057600080fd5b50600436106100935760003560e01c806389a8e2a71161006657806389a8e2a71461010e578063c87b56dd1461013e578063d4a2498d1461016e578063f0ba84401461019e578063f60ca60d146101ce57610093565b80630dd1abf21461009857806321df0da7146100c8578063481c6a75146100e65780638129fc1c14610104575b600080fd5b6100b260048036038101906100ad9190610729565b6101ec565b6040516100bf9190610765565b60405180910390f35b6100d0610210565b6040516100dd919061083e565b60405180910390f35b6100ee610268565b6040516100fb91906108a1565b60405180910390f35b61010c61028e565b005b61012860048036038101906101239190610a02565b61031d565b6040516101359190610b10565b60405180910390f35b61015860048036038101906101539190610729565b610376565b6040516101659190610b10565b60405180910390f35b61018860048036038101906101839190610b32565b610435565b6040516101959190610765565b60405180910390f35b6101b860048036038101906101b39190610729565b6104f5565b6040516101c59190610bc5565b60405180910390f35b6101d661059b565b6040516101e39190610bc5565b60405180910390f35b600081815481106101fc57600080fd5b906000526020600020016000915090505481565b6060600080548060200260200160405190810160405280929190818152602001828054801561025e57602002820191906000526020600020905b81548152602001906001019080831161024a575b5050505050905090565b600260009054906101000a900473ffffffffffffffffffffffffffffffffffffffff1681565b33600260006101000a81548173ffffffffffffffffffffffffffffffffffffffff021916908373ffffffffffffffffffffffffffffffffffffffff1602179055506040518060400160405280600c81526020017f4a4952412057656220332e3000000000000000000000000000000000000000008152506003908051906020019061031a929190610629565b50565b6103256106af565b6000604051806020016040528084815250905080600160008681526020019081526020016000206000820151816000019080519060200190610368929190610629565b509050508091505092915050565b61037e6106af565b600160008381526020019081526020016000206040518060200160405290816000820180546103ac90610c16565b80601f01602080910402602001604051908101604052809291908181526020018280546103d890610c16565b80156104255780601f106103fa57610100808354040283529160200191610425565b820191906000526020600020905b81548152906001019060200180831161040857829003601f168201915b5050505050815250509050919050565b6000806000805490509050600060018261044f9190610c76565b9050600081908060018154018082558091505060019003906000526020600020016000909190919091505560006040518060200160405280868152509050806001600084815260200190815260200160002060008201518160000190805190602001906104bd929190610629565b509050506000829080600181540180825580915050600190039060005260206000200160009091909190915055819350505050919050565b600160205280600052604060002060009150905080600001805461051890610c16565b80601f016020809104026020016040519081016040528092919081815260200182805461054490610c16565b80156105915780601f1061056657610100808354040283529160200191610591565b820191906000526020600020905b81548152906001019060200180831161057457829003601f168201915b5050505050905081565b600380546105a890610c16565b80601f01602080910402602001604051908101604052809291908181526020018280546105d490610c16565b80156106215780601f106105f657610100808354040283529160200191610621565b820191906000526020600020905b81548152906001019060200180831161060457829003601f168201915b505050505081565b82805461063590610c16565b90600052602060002090601f016020900481019282610657576000855561069e565b82601f1061067057805160ff191683800117855561069e565b8280016001018555821561069e579182015b8281111561069d578251825591602001919060010190610682565b5b5090506106ab91906106c2565b5090565b6040518060200160405280606081525090565b5b808211156106db5760008160009055506001016106c3565b5090565b6000604051905090565b600080fd5b600080fd5b6000819050919050565b610706816106f3565b811461071157600080fd5b50565b600081359050610723816106fd565b92915050565b60006020828403121561073f5761073e6106e9565b5b600061074d84828501610714565b91505092915050565b61075f816106f3565b82525050565b600060208201905061077a6000830184610756565b92915050565b600081519050919050565b600082825260208201905092915050565b6000819050602082019050919050565b6107b5816106f3565b82525050565b60006107c783836107ac565b60208301905092915050565b6000602082019050919050565b60006107eb82610780565b6107f5818561078b565b93506108008361079c565b8060005b8381101561083157815161081888826107bb565b9750610823836107d3565b925050600181019050610804565b5085935050505092915050565b6000602082019050818103600083015261085881846107e0565b905092915050565b600073ffffffffffffffffffffffffffffffffffffffff82169050919050565b600061088b82610860565b9050919050565b61089b81610880565b82525050565b60006020820190506108b66000830184610892565b92915050565b600080fd5b600080fd5b6000601f19601f8301169050919050565b7f4e487b7100000000000000000000000000000000000000000000000000000000600052604160045260246000fd5b61090f826108c6565b810181811067ffffffffffffffff8211171561092e5761092d6108d7565b5b80604052505050565b60006109416106df565b905061094d8282610906565b919050565b600067ffffffffffffffff82111561096d5761096c6108d7565b5b610976826108c6565b9050602081019050919050565b82818337600083830152505050565b60006109a56109a084610952565b610937565b9050828152602081018484840111156109c1576109c06108c1565b5b6109cc848285610983565b509392505050565b600082601f8301126109e9576109e86108bc565b5b81356109f9848260208601610992565b91505092915050565b60008060408385031215610a1957610a186106e9565b5b6000610a2785828601610714565b925050602083013567ffffffffffffffff811115610a4857610a476106ee565b5b610a54858286016109d4565b9150509250929050565b600081519050919050565b600082825260208201905092915050565b60005b83811015610a98578082015181840152602081019050610a7d565b83811115610aa7576000848401525b50505050565b6000610ab882610a5e565b610ac28185610a69565b9350610ad2818560208601610a7a565b610adb816108c6565b840191505092915050565b60006020830160008301518482036000860152610b038282610aad565b9150508091505092915050565b60006020820190508181036000830152610b2a8184610ae6565b905092915050565b600060208284031215610b4857610b476106e9565b5b600082013567ffffffffffffffff811115610b6657610b656106ee565b5b610b72848285016109d4565b91505092915050565b600082825260208201905092915050565b6000610b9782610a5e565b610ba18185610b7b565b9350610bb1818560208601610a7a565b610bba816108c6565b840191505092915050565b60006020820190508181036000830152610bdf8184610b8c565b905092915050565b7f4e487b7100000000000000000000000000000000000000000000000000000000600052602260045260246000fd5b60006002820490506001821680610c2e57607f821691505b602082108103610c4157610c40610be7565b5b50919050565b7f4e487b7100000000000000000000000000000000000000000000000000000000600052601160045260246000fd5b6000610c81826106f3565b9150610c8c836106f3565b9250827fffffffffffffffffffffffffffffffffffffffffffffffffffffffffffffffff03821115610cc157610cc0610c47565b5b82820190509291505056fea2646970667358221220330d803c4dd5e953c688ea038d01d0271d5a5864ea219cfe786e1a8a0212f19264736f6c634300080d0033",
  "linkReferences": {},
  "deployedLinkReferences": {}
}